{
  "transactions": [
    {
      "hash": "0xcb401a2314793a97f7d1becdc745d59073e00d363e3ccde83cb5899fe0649ddd",
      "transactionType": "CALL",
      "contractName": null,
      "contractAddress": "0x779877a7b0d9e8603169ddbd7836e478b4624789",
      "function": "transferAndCall(address,uint256,bytes)",
      "arguments": [
        "0x9DdfaCa8183c41ad55329BdeeD9F6A8d53168B1B",
        "3000000000000000000",
        "0xd08ffd298246d6a43c3b27f538159580b519df827102527b8245ff901c5c6509"
      ],
      "transaction": {
        "from": "0xdb80c0a5771d39f487ac37cfda8c1736cd2be3ab",
        "to": "0x779877a7b0d9e8603169ddbd7836e478b4624789",
        "gas": "0x14cbb",
        "value": "0x0",
        "input": "0x4000aea00000000000000000000000009ddfaca8183c41ad55329bdeed9f6a8d53168b1b00000000000000000000000000000000000000000000000029a2241af62c000000000000000000000000000000000000000000000000000000000000000000600000000000000000000000000000000000000000000000000000000000000020d08ffd298246d6a43c3b27f538159580b519df827102527b8245ff901c5c6509",
        "nonce": "0x84",
        "chainId": "0xaa36a7"
      },
      "additionalContracts": [],
      "isFixedGasLimit": false
    }
  ],
  "receipts": [
    {
      "status": "0x1",
      "cumulativeGasUsed": "0x1dfb513",
      "logs": [
        {
          "address": "0x779877a7b0d9e8603169ddbd7836e478b4624789",
          "topics": [
            "0xddf252ad1be2c89b69c2b068fc378daa952ba7f163c4a11628f55a4df523b3ef",
            "0x000000000000000000000000db80c0a5771d39f487ac37cfda8c1736cd2be3ab",
            "0x0000000000000000000000009ddfaca8183c41ad55329bdeed9f6a8d53168b1b"
          ],
          "data": "0x00000000000000000000000000000000000000000000000029a2241af62c0000",
          "blockHash": "0x9614badf9d6875be8835f51c15a3e3ded0480402b4ded86b40ac7e8d500b1166",
          "blockNumber": "0x860765",
          "blockTimestamp": "0x6878fd18",
          "transactionHash": "0xcb401a2314793a97f7d1becdc745d59073e00d363e3ccde83cb5899fe0649ddd",
          "transactionIndex": "0xd2",
          "logIndex": "0x143",
          "removed": false
        },
        {
          "address": "0x779877a7b0d9e8603169ddbd7836e478b4624789",
          "topics": [
            "0xe19260aff97b920c7df27010903aeb9c8d2be5d310a2c67824cf3f15396e4c16",
            "0x000000000000000000000000db80c0a5771d39f487ac37cfda8c1736cd2be3ab",
            "0x0000000000000000000000009ddfaca8183c41ad55329bdeed9f6a8d53168b1b"
          ],
          "data": "0x00000000000000000000000000000000000000000000000029a2241af62c000000000000000000000000000000000000000000000000000000000000000000400000000000000000000000000000000000000000000000000000000000000020d08ffd298246d6a43c3b27f538159580b519df827102527b8245ff901c5c6509",
          "blockHash": "0x9614badf9d6875be8835f51c15a3e3ded0480402b4ded86b40ac7e8d500b1166",
          "blockNumber": "0x860765",
          "blockTimestamp": "0x6878fd18",
          "transactionHash": "0xcb401a2314793a97f7d1becdc745d59073e00d363e3ccde83cb5899fe0649ddd",
          "transactionIndex": "0xd2",
          "logIndex": "0x144",
          "removed": false
        },
        {
          "address": "0x9ddfaca8183c41ad55329bdeed9f6a8d53168b1b",
          "topics": [
            "0x1ced9348ff549fceab2ac57cd3a9de38edaaab274b725ee82c23e8fc8c4eec7a",
            "0xd08ffd298246d6a43c3b27f538159580b519df827102527b8245ff901c5c6509"
          ],
          "data": "0x00000000000000000000000000000000000000000000000029a2241af62c000000000000000000000000000000000000000000000000000053444835ec580000",
          "blockHash": "0x9614badf9d6875be8835f51c15a3e3ded0480402b4ded86b40ac7e8d500b1166",
          "blockNumber": "0x860765",
          "blockTimestamp": "0x6878fd18",
          "transactionHash": "0xcb401a2314793a97f7d1becdc745d59073e00d363e3ccde83cb5899fe0649ddd",
          "transactionIndex": "0xd2",
          "logIndex": "0x145",
          "removed": false
        }
      ],
      "logsBloom": "0x00000004000000000000000000000000000000000020000000000000020000000000000040000000000100000000000000000000000000000000000000000000000000000000000000000008000000000000000000000000000020000020000008000000000000000000000000000000000000000000000000000010000040000000000000000000000000010000810000000020000000000000000000000000000000000400000000000000010000000000000000000000000004000000000000000002000000000000000000000000000000020000000100000000000000000010000000000000800000000000800000000000000000000000000000000000",
      "type": "0x2",
      "transactionHash": "0xcb401a2314793a97f7d1becdc745d59073e00d363e3ccde83cb5899fe0649ddd",
      "transactionIndex": "0xd2",
      "blockHash": "0x9614badf9d6875be8835f51c15a3e3ded0480402b4ded86b40ac7e8d500b1166",
      "blockNumber": "0x860765",
      "gasUsed": "0xf0e5",
      "effectiveGasPrice": "0x1deeab",
      "from": "0xdb80c0a5771d39f487ac37cfda8c1736cd2be3ab",
      "to": "0x779877a7b0d9e8603169ddbd7836e478b4624789",
      "contractAddress": null
    }
  ],
  "libraries": [],
  "pending": [],
  "returns": {},
  "timestamp": 1752759580,
  "chain": 11155111,
  "commit": null
}