{
  "transactions": [
    {
      "hash": "0x208a4965e274b9842e00170caf581b5ce8b74a27b7d792abc28a0437414251a0",
      "transactionType": "CALL",
      "contractName": null,
      "contractAddress": "0x9ddfaca8183c41ad55329bdeed9f6a8d53168b1b",
      "function": "addConsumer(uint256,address)",
      "arguments": [
        "94335478896486008268924862587106233291656592156716324409077529226756883244297",
        "0x6bF9198Cf6494dd019acE250403f5F1724139E6D"
      ],
      "transaction": {
        "from": "0xdb80c0a5771d39f487ac37cfda8c1736cd2be3ab",
        "to": "0x9ddfaca8183c41ad55329bdeed9f6a8d53168b1b",
        "gas": "0x21fc9",
        "value": "0x0",
        "input": "0xbec4c08cd08ffd298246d6a43c3b27f538159580b519df827102527b8245ff901c5c65090000000000000000000000006bf9198cf6494dd019ace250403f5f1724139e6d",
        "nonce": "0x86",
        "chainId": "0xaa36a7"
      },
      "additionalContracts": [],
      "isFixedGasLimit": false
    }
  ],
  "receipts": [
    {
      "status": "0x1",
      "cumulativeGasUsed": "0x19fd402",
      "logs": [
        {
          "address": "0x9ddfaca8183c41ad55329bdeed9f6a8d53168b1b",
          "topics": [
            "0x1e980d04aa7648e205713e5e8ea3808672ac163d10936d36f91b2c88ac1575e1",
            "0xd08ffd298246d6a43c3b27f538159580b519df827102527b8245ff901c5c6509"
          ],
          "data": "0x0000000000000000000000006bf9198cf6494dd019ace250403f5f1724139e6d",
          "blockHash": "0xbf4105a97b1af9c31f90f78cd87c2b0a80a146d6a10365185eb9e43e3dd0c559",
          "blockNumber": "0x860870",
          "blockTimestamp": "0x6879099c",
          "transactionHash": "0x208a4965e274b9842e00170caf581b5ce8b74a27b7d792abc28a0437414251a0",
          "transactionIndex": "0xcc",
          "logIndex": "0x170",
          "removed": false
        }
      ],
      "logsBloom": "0x00000000000000000000000000000080000000000020000000000000000000000000000040000000000100000000000000000000000000000000000000000000000000000000000000000000000000000000000000000001000000000000000008000000000000000000000000000000000000000000000000002000000000000000000000000000000000010000000000000000000000000000000000000000000000000000000000000000000000000000000000000000000000000000000000000000000000000000000000000000000000000000000000000000000000000000000000000000000000000000800000000000000000000000000000000000",
      "type": "0x2",
      "transactionHash": "0x208a4965e274b9842e00170caf581b5ce8b74a27b7d792abc28a0437414251a0",
      "transactionIndex": "0xcc",
      "blockHash": "0xbf4105a97b1af9c31f90f78cd87c2b0a80a146d6a10365185eb9e43e3dd0c559",
      "blockNumber": "0x860870",
      "gasUsed": "0x173d2",
      "effectiveGasPrice": "0x1f31bb",
      "from": "0xdb80c0a5771d39f487ac37cfda8c1736cd2be3ab",
      "to": "0x9ddfaca8183c41ad55329bdeed9f6a8d53168b1b",
      "contractAddress": null
    }
  ],
  "libraries": [],
  "pending": [],
  "returns": {},
  "timestamp": 1752762782,
  "chain": 11155111,
  "commit": null
}